:060000000A128A11FC2F18
:100E3E00831603138601870188018312031386012B
:100E4E00870188010A128A1134270A128A110A129E
:100E5E008A1198270A128A11292F08308312031338
:100E6E0086000730F1007D30F000F00B3C2FF10BC7
:100E7E003C2F09308312031386000730F1007D30BA
:100E8E00F000F00B482FF10B482F0A30831203139A
:100E9E0086000730F1007D30F000F00B542FF10B7F
:100EAE00542F0B308312031386000730F1007D3070
:100EBE00F000F00B602FF10B602F0C308312031338
:100ECE0086000730F1007D30F000F00B6C2FF10B37
:100EDE006C2F0D308312031386000730F1007D3026
:100EEE00F000F00B782FF10B782F0E3083120313D6
:100EFE0086000730F1007D30F000F00B842FF10BEF
:100F0E00842F0F308312031386000730F1007D30DB
:100F1E00F000F00B902FF10B902F8312031386012C
:100F2E00080010308312031388000730F1007D3063
:100F3E00F000F00BA02FF10BA02F903083120313B3
:100F4E0088000730F1007D30F000F00BAC2FF10B74
:100F5E00AC2F50308312031388000730F1007D3020
:100F6E00F000F00BB82FF10BB82FD0308312031313
:100F7E0088000730F1007D30F000F00BC42FF10B2C
:100F8E00C42F30308312031388000730F1007D30F8
:100F9E00F000F00BD02FF10BD02FB03083120313D3
:100FAE0088000730F1007D30F000F00BDC2FF10BE4
:100FBE00DC2F70308312031388000730F1007D3070
:100FCE00F000F00BE82FF10BE82FF0308312031333
:100FDE0088000730F1007D30F000F00BF42FF10B9C
:100FEE00F42F831203138801080083010A128A1159
:020FFE001F2FA3
:02400E0032FF7F
:00000001FF
