:060000000A128A11FC2F18
:100D5A008316031386018701880183120313860110
:100D6A0087018801061186100610861506120830BA
:100D7A00F2009D30F1000B30F000F00BC22EF10BA7
:100D8A00C22EF20BC22EC92E83120313061186102D
:100D9A000614861506120830F2009D30F1000B3059
:100DAA00F000F00BD62EF10BD62EF20BD62EDD2E3E
:100DBA0083120313061186140610861506120830CC
:100DCA00F2009D30F1000B30F000F00BEA2EF10B2F
:100DDA00EA2EF20BEA2EF12E831203130611861461
:100DEA000614861506120830F2009D30F1000B3009
:100DFA00F000F00BFE2EF10BFE2EF20BFE2E052F4D
:100E0A00831203130615861006108615061208307B
:100E1A00F2009D30F1000B30F000F00B122FF10BB5
:100E2A00122FF20B122F192F831203130615861095
:100E3A000614861506120830F2009D30F1000B30B8
:100E4A00F000F00B262FF10B262FF20B262F2D2F59
:100E5A008312031306158614061086150612083027
:100E6A00F2009D30F1000B30F000F00B3A2FF10B3D
:100E7A003A2FF20B3A2F412F8312031306158614C9
:100E8A000614861506120830F2009D30F1000B3068
:100E9A00F000F00B4E2FF10B4E2FF20B4E2F552F69
:100EAA008312031386110612881208138813081670
:100EBA0087130830F2009D30F1000B30F000F00B80
:100ECA00642FF10B642FF20B642F6B2F8312031321
:100EDA00881208138817081687130830F2009D3005
:100EEA00F1000B30F000F00B782FF10B782FF20B9A
:100EFA00782F7F2F83120313881208178813081676
:100F0A0087130830F2009D30F1000B30F000F00B2F
:100F1A008C2FF10B8C2FF20B8C2F932F8312031330
:100F2A00881208178817081687130830F2009D30B0
:100F3A00F1000B30F000F00BA02FF10BA02FF20BF9
:100F4A00A02FA72F831203138816081388130816D5
:100F5A0087130830F2009D30F1000B30F000F00BDF
:100F6A00B42FF10BB42FF20BB42FBB2F8312031340
:100F7A00881608138817081687130830F2009D3060
:100F8A00F1000B30F000F00BC82FF10BC82FF20B59
:100F9A00C82FCF2F83120313881608178813081631
:100FAA0087130830F2009D30F1000B30F000F00B8F
:100FBA00DC2FF10BDC2FF20BDC2FE32F8312031350
:100FCA00881608178817081687130830F2009D300C
:100FDA00F1000B30F000F00BF02FF10BF02FF20BB9
:100FEA00F02FF72F8312031308128713B72E8301EA
:060FFA000A128A11AD2E5F
:02400E0032FF7F
:00000001FF
