:040000008A11F22F40
:100EF000831603138501860187018312031385017D
:100F00008601870120308A11B7278A1100287E08C0
:100F10008A007F08820087278A118000840A0408DB
:100F20007D0603190034FF0A0319FE0A8B2F0034D3
:100F3000003440340034C0346034C0343934C034F8
:100F40003F34E0341F34F8340F34FE340734F834BF
:100F50000F34E0341F34C0343F34C0343934C0342B
:100F600060344034003400340034003400348312E0
:100F70000313C400C501C6014608803AFF00803053
:100F80007F02031DC52F103045020318080083128D
:100F900003134508C00040074407C100410884000E
:100FA00083130008C200840A0008C30043088600B7
:100FB0004508C00040074407C100410884000008FC
:100FC00087000730C1007D30C000C00BE52FC10B8A
:100FD000E52F013083120313C5070318C60A00303A
:100FE000C607BC2F83134030FD000730FE0097304A
:100FF000FF00203084008A118B2783018A11782F0B
:02400E0032FD81
:00000001FF
