:060000000A128A11FA2F1A
:100E52008316031386018312031386010A128A1171
:100E620035270A128A112F2F80308312031386002E
:100E72000730F3007D30F200F20B3D2FF30B3D2FD4
:100E820090308312031386000730F3007D30F200A6
:100E9200F20B492FF30B492FA03083120313860064
:100EA2000730F3007D30F200F20B552FF30B552F74
:100EB200B0308312031386000730F3007D30F20056
:100EC200F20B612FF30B612FC030831203138600E4
:100ED2000730F3007D30F200F20B6D2FF30B6D2F14
:100EE200D0308312031386000730F3007D30F20006
:100EF200F20B792FF30B792FE03083120313860064
:100F02000730F3007D30F200F20B852FF30B852FB3
:100F1200F0308312031386000730F3007D30F200B5
:100F2200F20B912FF30B912F8312031386010830DA
:100F320086000730F3007D30F200F20B9E2FF30B98
:100F42009E2F09308312031386000730F3007D3091
:100F5200F200F20BAA2FF30BAA2F0A30831203130B
:100F620086000730F3007D30F200F20BB62FF30B50
:100F7200B62F0B308312031386000730F3007D3047
:100F8200F200F20BC22FF30BC22F0C3083120313A9
:100F920086000730F3007D30F200F20BCE2FF30B08
:100FA200CE2F0D308312031386000730F3007D30FD
:100FB200F200F20BDA2FF30BDA2F0E308312031347
:100FC20086000730F3007D30F200F20BE62FF30BC0
:100FD200E62F0F308312031386000730F3007D30B3
:100FE200F200F20BF22FF30BF22F8312031386019E
:0E0FF2000800F001F10183010A128A11292F73
:02400E0032FD81
:00000001FF
