:060000000A128A11F02F24
:100BF8007E088A007F088200FC250A128A1180007C
:100C0800840A04087D0603190034FF0A0319FE0A42
:100C1800002EF6007608203E8400FF308313800003
:100C2800840AFF308000F701F8017808803AFF0055
:100C380080307F02031D222E10307702031808002F
:100C48007708F0007007023E7607F100710884000B
:100C580083130008F200840A0008F3007708F40000
:100C680074077607F5007508840072088000840A06
:100C7800730880000130F7070318F80A0030F807F6
:100C8800192EFB00FC01FD017D08803AFF00803031
:100C98007F02031D512E10307C02031808007C08C7
:100CA800F30073077B07F4007408840083130008BB
:100CB800F500840A0008F6007608F7007708F000C7
:100CC8007C08F80078077B07F90079088400000899
:100CD800FA007A08F1007C080A128A1129270A12F8
:100CE8008A110730F4007D30F300F30B792EF40BF2
:100CF800792E0130FC070318FD0A0030FD07482E45
:100D0800FF34FF34FF34DF34FF34CF34FF34E334AF
:100D18000334F834FF34FF34FF34FF34FF34FF3436
:100D2800FF34FF340134C034FF34CF34FF34E734A8
:100D3800FF34F334FF34F934FF34FC347F34FE34A9
:100D4800FF34FF34FF34DF34FF34CF34FF34E3346F
:100D58000334F834FF34FF34FF34FF34FF34FF34F6
:100D6800FF34FF340134C034FF34CF34FF34E73468
:100D7800FF34F334FF34F934FF34FC347F34FE3469
:100D880083160313850186018701880183120313E3
:100D9800850186018701880144308400A030A000C5
:100DA8000408A1002030A200200884008313000852
:100DB800A300A00A2108840023088000A10AA20B2E
:100DC800D82E24308400C030A0000408A1002030B0
:100DD800A2002008840083130008A300A00A2108A9
:100DE800840023088000A10AA20BED2E83120313AE
:100DF800E401E5016508803AFF0080307F02031DA9
:100E0800072F143064020318222F44300A128A1163
:100E180045260A128A11013083120313E4070318C6
:100E2800E50A0030E5076508803AFF0080307F0258
:100E3800031D202F14306402031C092F44300A12AA
:100E48008A110D260A128A11FA2EF200BD2F83127A
:100E58000313850108308700700888007108860030
:100E6800080009308312031387007008880071088E
:100E7800860008000A308312031387007008880070
:100E88007108860008000B3083120313870070086E
:100E980088007108860008000C308312031387004D
:100EA800700888007108860008000D30831203134B
:100EB8008700700888007108860008000E308312C9
:100EC80003138700700888007108860008000F3037
:100ED80083120313870070088800710886000800D1
:100EE8008312031387010830850070088800710891
:100EF80086000800093083120313850070088800F3
:100F08007108860008000A308312031385007008F0
:100F180088007108860008000B30831203138500CF
:100F2800700888007108860008000C3083120313CB
:100F38008500700888007108860008000D3083124B
:100F480003138500700888007108860008000E30B9
:100F58008312031385007008880071088600080052
:100F68000F3083120313850070088800710886000B
:100F780008007208013A03192B2F033A0319352F79
:100F8800013A03193E2F073A0319472F013A03196B
:100F9800502F033A0319592F013A0319622F0F3AB8
:100FA80003196B2F013A0319742F033A03197E2F83
:100FB800013A0319872F073A0319902F013A0319A9
:100FC800992F033A0319A22F013A0319AB2F1F3A9D
:100FD8000319B42FEF2F08008313E030FD0006300B
:100FE800FE008430FF00A03084000A128A11002617
:080FF80083010A128A11C42EC4
:02400E0032FF7F
:00000001FF
