:060000000A128A11122809
:10000800FE00030EF0000408F1000A08F200831253
:1000180003137F08F3000A128A11922A0A128A111E
:100028001528F601F70183010A128A11612A8E2820
:1000380010308312031388000630F5003030F400C6
:10004800F40B2428F50B2428000008003030831214
:10005800031388000630F5003030F400F40B322822
:10006800F50B322800000800503083120313880073
:100078000630F5003030F400F40B4028F50B40282A
:100088000000080070308312031388000630F50062
:100098003030F400F40B4E28F50B4E280000080011
:1000A80090308312031388000630F5003030F400D6
:1000B800F40B5C28F50B5C2800000800B0308312B4
:1000C800031388000630F5003030F400F40B6A287A
:1000D800F50B6A2800000800D0308312031388004B
:1000E8000630F5003030F400F40B7828F50B78284A
:1000F80000000800F0308312031388000630F50072
:100108003030F400F40B8628F50B86280000F60141
:10011800F70108007708003A03199328AD287608F4
:10012800193A03191C28033A03192A28013A031912
:100138003828073A03194628013A03195428033A7C
:1001480003196228013A031970283F3A03197E28D7
:10015800AD2808001F2901308312031388000630D8
:10016800F5003030F400F40BB728F50BB728000081
:10017800080003308312031388000630F50030307E
:10018800F400F40BC528F50BC5280000080005305D
:100198008312031388000630F5003030F400F40BA6
:1001A800D328F50BD3280000080007308312031367
:1001B80088000630F5003030F400F40BE128F50B28
:1001C800E128000008000930831203138800063074
:1001D800F5003030F400F40BEF28F50BEF280000A1
:1001E80008000B308312031388000630F500303006
:1001F800F400F40BFD28F50BFD28000008000D3075
:100208008312031388000630F5003030F400F40B35
:100218000B29F50B0B29000008000F30831203137C
:1002280088000630F5003030F400F40B1929F50B7E
:100238001929000008007708003A031924293E29E3
:100248007608113A0319AF28033A0319BD28013A71
:100258000319CB28073A0319D928013A0319E728C3
:10026800033A0319F528013A031903290F3A031928
:1002780011293E290800B029103083120313870082
:100288000630F5003030F400F40B4829F50B482906
:100298000000080030308312031387000630F50091
:1002A8003030F400F40B5629F50B562900000800ED
:1002B80050308312031387000630F5003030F40005
:1002C800F40B6429F50B64290000080070308312D0
:1002D800031387000630F5003030F400F40B722960
:1002E800F50B722900000800903083120313870071
:1002F8000630F5003030F400F40B8029F50B802926
:1003080000000800B0308312031387000630F500A0
:100318003030F400F40B8E29F50B8E29000008000C
:10032800D0308312031387000630F5003030F40014
:10033800F40B9C29F50B9C2900000800F03083126F
:10034800031387000630F5003030F400F40BAA29B7
:10035800F50BAA29000008007708003A0319B52907
:10036800CF297608093A03194029033A03194E2977
:10037800013A03195C29073A03196A29013A031952
:100388007829033A03198629013A031994291F3A4F
:100398000319A229CF290800412A01308312031327
:1003A80087000630F5003030F400F40BD929F50B3E
:1003B800D929000008000330831203138700063090
:1003C800F5003030F400F40BE729F50BE7290000BD
:1003D800080005308312031387000630F50030301B
:1003E800F400F40BF529F50BF52900000800073097
:1003F8008312031387000630F5003030F400F40B45
:10040800032AF50B032A000008000930831203139E
:1004180087000630F5003030F400F40B112AF50B94
:10042800112A000008000B308312031387000630DE
:10043800F5003030F400F40B1F2AF50B1F2A0000DA
:1004480008000D308312031387000630F5003030A2
:10045800F400F40B2D2AF50B2D2A000008000F30AC
:100468008312031387000630F5003030F400F40BD4
:100478003B2AF50B3B2A000008007708003A0319CD
:10048800462A602A7608013A0319D129033A031942
:10049800DF29013A0319ED29073A0319FB29013A23
:1004A8000319092A033A0319172A013A0319252AB5
:1004B8000F3A0319332A602A080001308316031300
:1004C8008600870188018312031387018801831638
:1004D800031301178B100B168B170A128A11D021E0
:1004E8000A128A118312031387010A128A113F2103
:1004F8000A128A118312031387010A128A11AE2085
:100508000A128A118312031388010A128A111B2006
:100518000A128A11831203138801712A0130F6071F
:100528000318F70A0030F7078B107308FF007208EA
:100538008A0071088400700E8300FE0E7E0E09008A
:02400E0032FF7F
:00000001FF
