:040000008A11E72F4B
:100E0C007E088A007F08820006278A118000840AE7
:100E1C0004087D0603190034FF0A0319FE0A0A2F81
:100E2C008316031385018601870183120313850141
:100E3C008601870120308A1129278A1140308A11B6
:100E4C0029278A11002883120313E400E501E60127
:100E5C006608803AFF0080307F02031D372F103068
:100E6C006502031808008312031305146508E000DB
:100E7C0060076407E1006108840083130008E20046
:100E8C00840A0008E300630886006508E000600738
:100E9C006407E10061088400000887000510063033
:100EAC00E1003030E000E00B592FE10B592F00002E
:100EBC00013083120313E5070318E60A0030E60736
:100ECC002E2F0034003400340034F8343F340E3408
:100EDC006034003410340034003400341C340834D2
:100EEC0030340834203408342034083420340834A6
:100EFC0020340834203408342034003420340034B6
:100F0C00003400340034083400340834023408341B
:100F1C00033488340134E8344034B83440348F34EA
:100F2C0040348834403488344034883460348834D5
:100F3C0020340834313408341E3400340034003486
:100F4C000034003400340034003400340C340434E5
:100F5C00183404341034043430340434203404345D
:100F6C002034043420340434203404342034043445
:100F7C002034043420340034203400340034003461
:100F8C000034003400340034603400343C34803499
:100F9C000734F03402341C34013487340034803488
:100FAC0000348034003400343F3400344034003496
:100FBC00403400346034003430340034183400349D
:100FCC0000348313E030FD000730FE006730FF0073
:100FDC00A03084008A110A278A116030FD00073086
:100FEC00FE00A730FF00203084008A110A278301FD
:040FFC008A11162F11
:02400E0032FD81
:00000001FF
