:060000000A128A11F02F24
:100B2C007E088A007F08820096250A128A118000AE
:100B3C00840A04087D0603190034FF0A0319FE0A0F
:100B4C009A2D2434103424340C3424340334FE34DD
:100B5C00FF342234013423348634C134C034783425
:100B6C0060340034383400340F34FF340134003432
:100B7C000F3440343834703460341C34C034003496
:100B8C008034F700F801F9017908803AFF008030D1
:100B9C007F02031DD32D103078020318080078084B
:100BAC00F10071077707F2007208840083130008C4
:100BBC00F300840A0008F4007808F5007507700744
:100BCC00F6007608840073088000840A740880009C
:100BDC000130F8070318F90A0030F907CA2DFB0099
:100BEC00FC01FD017D08803AFF0080307F02031D6F
:100BFC00012E10307C02031808007C08F3007307E8
:100C0C007B07F4007408840083130008F500840A41
:100C1C000008F6007608F7007708F0007C08F8006A
:100C2C0078077B07F900790884000008FA007A0835
:100C3C00F1007C080A128A1129270A128A1107303E
:100C4C00F4007D30F300F30B292EF40B292E013028
:100C5C00FC070318FD0A0030FD07F82D831603135B
:100C6C00860187018801831203138601870188019D
:100C7C0024308400A030A0000408A1002030A20081
:100C8C002008840083130008A300A00A2108840014
:100C9C0023088000A10AA20B462E443083120313B2
:100CAC00A0002008F00024300A128A11C7250A126D
:100CBC008A11C03083120313A0002008F0002430E6
:100CCC000A128A11C7250A128A1183120313E4012E
:100CDC00E5016508803AFF0080307F02031D782E05
:100CEC001E3064020318932EC0300A128A11F525A7
:100CFC000A128A11013083120313E4070318E50A60
:100D0C000030E5076508803AFF0080307F02031D44
:100D1C00912E1E306402031C7A2E4430831203136E
:100D2C00A0002008F000C0300A128A11A0260A1276
:100D3C008A11532EF700F801F9017908803AFF0067
:100D4C0080307F02031DAC2E0F3078020318D92E91
:100D5C007808F1007107023E7707F20072088400F0
:100D6C0083130008F300840A0008F4007808F500E7
:100D7C0075077707F6007608840073088000840AEC
:100D8C00740880000130F8070318F90A0030F907DD
:100D9C007908803AFF0080307F02031DD72E0F3078
:100DAC007802031CAE2E7008840083130008F10037
:100DBC00840A0008F20077081E3E84007108800047
:100DCC00840A72088000FA01FB017B08803AFF005C
:100DDC0080307F02031DF42E0F307A020318212F6E
:100DEC007A08F1007107023E7007F2007208840065
:100DFC0083130008F300840A0008F4007A08F50055
:100E0C0075077007F6007608840073088000840A62
:100E1C00740880000130FA070318FB0A0030FB0746
:100E2C007B08803AFF0080307F02031D1F2F0F309C
:100E3C007A02031CF62E70081E3E84008313800178
:100E4C00840A80010800F200BD2F8312031386016F
:100E5C001030860070088800710887000800303058
:100E6C00831203138600700888007108870008003D
:100E7C0050308312031386007008880071088700B5
:100E8C000800703083120313860070088800710804
:100E9C0087000800903083120313860070088800C6
:100EAC00710887000800B0308312031386007008A5
:100EBC008800710887000800D03083120313860065
:100ECC0070088800710887000800F0308312031343
:100EDC0086007008880071088700080083120313CD
:100EEC0086010130860070088800710887000800B0
:100EFC000330831203138600700888007108870082
:100F0C0008000530831203138600700888007108EE
:100F1C0087000800073083120313860070088800CE
:100F2C0071088700080009308312031386007008CB
:100F3C0088007108870008000B30831203138600A9
:100F4C00700888007108870008000D3083120313A5
:100F5C008600700888007108870008000F30831223
:100F6C000313860070088800710887000800720857
:100F7C00013A03192B2F033A0319352F013A0319A0
:100F8C003E2F073A0319472F013A0319502F033A02
:100F9C000319592F013A0319622F0F3A03196B2FBA
:100FAC00013A0319742F033A03197E2F013A0319DE
:100FBC00872F073A0319902F013A0319992F033AF7
:100FCC000319A22F013A0319AB2F1F3A0319B42F9F
:100FDC00EF2F08008313C030FD000530FE00A73052
:100FEC00FF00A03084000A128A119A2583010A128C
:040FFC008A11342EF4
:02400E0032FF7F
:00000001FF
